:100000000C944D000C946C000C946C000C946C00DF
:100010000C946C000C946C000C946C000C946C00B0
:100020000C946C000C946C000C946C000C946C00A0
:100030000C946C000C94AA000C946C000C946C0052
:100040000C946C000C946C000C946C000C946C0080
:100050000C946C000C946C000C946C000C946C0070
:100060000C946C000C946C000C946C000C946C0060
:100070000C946C000C946C000C946C000C946C0050
:100080000C946C000C946C000C946C0016011D0117
:1000900024014C0153017B01A30111241FBECFEFAA
:1000A000D0E4DEBFCDBF11E0A0E0B1E0ECEEF3E0C4
:1000B00000E00BBF02C007900D92A431B107D9F741
:1000C00011E0A4E1B1E001C01D92AC31B107E1F74C
:1000D0000E94D1010C94F4010C940000CF93C82F1E
:1000E0008A3019F48DE00E946E009091C00095FF57
:1000F000FCCFC093C60080E090E0CF9108958BE0E4
:10010000809381008DE790E0909389008093880030
:1001100082E080936F00109285001092840080919D
:10012000010190910201A0910301B091040180931B
:10013000150190931601A0931701B09318018FB782
:1001400080688FBF089510928100089581E08093A8
:10015000190108951F920F920FB60F9211240BB63A
:100160000F922F933F934F935F936F937F938F9350
:100170009F93AF93BF93EF93FF938091150190915D
:100180001601A0911701B09118010197A109B109B9
:100190008093150190931601A0931701B093180155
:1001A000892B8A2B8B2B91F40E94A6008091010150
:1001B00090910201A0910301B09104018093150177
:1001C00090931601A0931701B0931801FF91EF913E
:1001D000BF91AF919F918F917F916F915F914F915F
:1001E0003F912F910F900BBE0F900FBE0F901F905D
:1001F000189560930101709302018093030190931D
:100200000401609315017093160180931701909378
:1002100018010895E0911A01F0911B01E730F105F2
:1002200008F098C0EA5BFF4F0C94EB0185E090E08A
:1002300090931B0180931A0193C082E090E0909309
:100240001B0180931A018CC0009909C0019907C055
:1002500086E090E090931B0180931A0181C0009B7F
:1002600009C0019907C083E090E090931B0180933F
:100270001A0176C0009B09C0019B07C085E090E091
:1002800090931B0180931A016BC081E090E09093E2
:100290001B0180931A0164C084E090E090931B01DD
:1002A00080931A015DC0009909C0019907C086E0DA
:1002B00090E090931B0180931A0152C0019B09C0EA
:1002C000009907C081E090E090931B0180931A0190
:1002D00047C0009B09C0019B07C085E090E0909358
:1002E0001B0180931A013CC083E090E090931B01B6
:1002F00080931A0135C0009909C0019907C086E0B2
:1003000090E090931B0180931A012AC0019B09C0C1
:10031000009907C081E090E090931B0180931A013F
:100320001FC0009B09C0019907C083E090E0909333
:100330001B0180931A0114C085E090E090931B018B
:1003400080931A010DC085E090E090931B0180938B
:100350001A0106C085E090E090931B0180931A017A
:1003600080911A0190911B018330910569F08630CC
:10037000910589F0019789F480910001893009F095
:100380008F5F8093000109C080910001811181502D
:100390008093000102C0109200018091000185B994
:1003A000089511B88FEF82B984B915B810921B0166
:1003B00010921A0166E270E080E090E00E94F9007D
:1003C0000E947F00809119018823E1F310921901A6
:1003D0000E940A01F7CFEE0FFF1F0024001C0BBE86
:0C03E0000790F691E02D0994F894FFCFEF
:1003EC00070100000000000002000000006E000089
:0403FC0000000000FD
:00000001FF
