:100000000C9446000C9465000C9465000C946500FB
:100010000C9465000C9465000C9465000C946500CC
:100020000C9465000C9465000C9465000C946500BC
:100030000C9465000C94A3000C9465000C9465006E
:100040000C9465000C9465000C9465000C9465009C
:100050000C9465000C9465000C9465000C9465008C
:100060000C9465000C9465000C9465000C9465007C
:100070000C9465000C9465000C9465000C9465006C
:100080000C9465000C9465000C94650011241FBE4F
:10009000CFEFD0E4DEBFCDBF11E0A0E0B1E0EEE0F5
:1000A000F3E000E00BBF02C007900D92A431B1074E
:1000B000D9F711E0A4E1B1E001C01D92AB31B10765
:1000C000E1F70E946B010C9485010C940000CF9322
:1000D000C82F8A3019F48DE00E9467009091C0000B
:1000E00095FFFCCFC093C60080E090E0CF910895CB
:1000F0008BE0809381008DE790E09093890080935E
:10010000880082E080936F00109285001092840036
:100110008091010190910201A0910301B09104012D
:100120008093140190931501A0931601B0931701C9
:100130008FB780688FBF089510928100089581E085
:100140008093180108951F920F920FB60F921124F9
:100150000BB60F922F933F934F935F936F937F93C1
:100160008F939F93AF93BF93EF93FF93809114016D
:1001700090911501A0911601B09117010197A10965
:10018000B1098093140190931501A0931601B093C7
:100190001701892B8A2B8B2B91F40E949F00809151
:1001A000010190910201A0910301B091040180939B
:1001B000140190931501A0931601B0931701FF91BC
:1001C000EF91BF91AF919F918F917F916F915F91CF
:1001D0004F913F912F910F900BBE0F900FBE0F903C
:1001E0001F901895609301017093020180930301A1
:1001F000909304016093140170931501809316018C
:100200009093170108958091190190911A018130FE
:10021000910581F038F08230910539F1039709F4A6
:100220003FC0089581E090E090931A0180931901F6
:1002300085B9089580B18E3F41F481E0909100012D
:10024000911180E0809300010DC080B18E3F51F08C
:1002500080910001882331F082E090E090931A01B0
:100260008093190181E085B9089580B18E3F41F4F2
:1002700081E090910001911180E0809300010DC018
:1002800080B18E3F51F080910001882331F083E0EE
:1002900090E090931A018093190182E085B9089546
:1002A00080B18E3F41F481E090910001911180E096
:1002B000809300010DC080B18E3F51F0809100010C
:1002C000882331F081E090E090931A018093190126
:1002D00084E085B9089511B88FEF82B984B915B853
:1002E00010921A011092190166E270E080E090E02D
:1002F0000E94F2000E9478000E9403018091180180
:0E0300008823E1F310921801F7CFF894FFCF95
:10030E000101000000000000020000000067000074
:04031E0000000000DB
:00000001FF
